:100000000C9462000C948A000C948A000C948A0070
:100010000C948A000C948A000C948A000C948A0038
:100020000C948A000C948A000C948A000C948A0028
:100030000C948A000C94D9070C948A000C948A00C2
:100040000C948F070C948A000C945D070C9437076E
:100050000C948A000C948A000C948A000C948A00F8
:100060000C9400080C948A00000000002400270073
:100070002A0000000000250028002B0000000000DE
:1000800023002600290004040404040404040202DA
:100090000202020203030303030301020408102007
:1000A0004080010204081020010204081020000012
:1000B0000008000201000003040700000000000027
:1000C00000001B0911241FBECFEFD8E0DEBFCDBF5B
:1000D00011E0A0E0B1E0E8E1F3E202C005900D928A
:1000E000A03EB107D9F723E0A0EEB1E001C01D9218
:1000F000AC35B207E1F710E0C2E6D0E004C02197CA
:10010000FE010E948411C136D107C9F70E9463091C
:100110000C948A110C940000AF92BF92CF92DF92A0
:10012000EF92FF920F931F93CF93DF936C017B01AC
:100130008B01040F151FEB015E01AE18BF08C0173D
:10014000D10759F06991D601ED91FC910190F081B0
:10015000E02DC6010995892B79F7C501DF91CF9173
:100160001F910F91FF90EF90DF90CF90BF90AF90D5
:100170000895FC01538D448D252F30E0842F90E0AD
:10018000821B930B541710F0CF9608950197089592
:10019000FC01918D828D981761F0A28DAE0FBF2F5B
:1001A000B11D5D968C91928D9F5F9F73928F90E0B1
:1001B00008958FEF9FEF0895FC01918D828D981720
:1001C00031F0828DE80FF11D858D90E008958FEF5D
:1001D0009FEF0895FC01918D228D892F90E0805C26
:1001E0009F4F821B91098F739927089587EA92E0A8
:1001F0000E94EA0021E0892B09F420E0822F089573
:1002000080E090E0892B29F00E94F60081110C9487
:1002100000000895FC01A48DA80FB92FB11DA35AA9
:10022000BF4F2C91848D90E001968F739927848F16
:10023000A689B7892C93A089B1898C918370806439
:100240008C93938D848D981306C00288F389E02DDA
:1002500080818F7D80830895EF92FF920F931F938B
:10026000CF93DF93EC0181E0888F9B8D8C8D981369
:100270001AC0E889F989808185FF15C09FB7F89475
:10028000EE89FF896083E889F989808183708064C1
:1002900080839FBF81E090E0DF91CF911F910F910C
:1002A000FF90EF900895F62E0B8D10E00F5F1F4F1B
:1002B0000F731127E02E8C8D8E110CC00FB607FC2A
:1002C000FACFE889F989808185FFF5CFCE010E94B8
:1002D0000A01F1CFEB8DEC0FFD2FF11DE35AFF4F1B
:1002E000F0829FB7F8940B8FEA89FB898081806246
:1002F000CFCFCF93DF93EC01888D8823B9F0AA8903
:10030000BB89E889F9898C9185FD03C0808186FDD0
:100310000DC00FB607FCF7CF8C9185FFF2CF80811F
:1003200085FFEDCFCE010E940A01E9CFDF91CF9189
:100330000895833081F028F4813099F08230A9F05B
:1003400008958730A9F08830C9F08430B1F48091E5
:1003500080008F7D03C0809180008F778093800024
:10036000089584B58F7784BD089584B58F7DFBCFC4
:100370008091B0008F778093B00008958091B00095
:100380008F7DF9CF1F93CF93DF93282F30E0F901B2
:10039000E255FF4F8491F901E656FF4FD491F901E0
:1003A000EA57FF4FC491CC23A9F0162F81110E9468
:1003B0009901EC2FF0E0EE0FFF1FEE58FF4FA591D3
:1003C000B4918FB7F894EC91111108C0D095DE2349
:1003D000DC938FBFDF91CF911F910895DE2BF8CF73
:1003E000CF93DF9390E0FC01E656FF4F24918A57AC
:1003F0009F4FFC0184918823D1F090E0880F991FD2
:10040000FC01E859FF4FA591B491FC01EE58FF4F54
:10041000C591D49161110EC09FB7F8948C91E22FD1
:10042000E0958E238C932881E223E8839FBFDF91A0
:10043000CF9108958FB7F894EC91E22BEC938FBF96
:10044000F6CF3FB7F89480917B0290917C02A09107
:100450007D02B0917E0226B5A89B05C02F3F19F002
:100460000196A11DB11D3FBFBA2FA92F982F882734
:10047000BC01CD01620F711D811D911D42E0660F0F
:10048000771F881F991F4A95D1F708958F929F92E1
:10049000AF92BF92CF92DF92EF92FF924B015C013D
:1004A0000E9421026B017C010E9421026C197D09CE
:1004B0008E099F09683E734081059105A8F321E0EC
:1004C000821A9108A108B10888EEC80E83E0D81EF0
:1004D000E11CF11C81149104A104B10429F7FF90DF
:1004E000EF90DF90CF90BF90AF909F908F90089546
:1004F00008951F93CF93DF93C1E0C0930F02882329
:1005000099F1D091B8001091BA008091BC008A7B1B
:100510008093BC0060E082E10E94C20160E083E160
:100520000E94C20110925402C093560210925502CA
:1005300061E082E10E94C20161E083E10E94C201A8
:100540008091B9008E7F8093B9008091B9008D7F32
:100550008093B90088E48093B80085E48093BC0060
:100560001093BA00D093B800DF91CF911F910895F6
:1005700020913002260F3327331F21323105ECF44E
:1005800020915402FC0190E080E0243069F082E088
:100590000895A09130022191AC01405F5D4FA40FFE
:1005A000B52FB11D2C930196861798F380913002D8
:1005B000680F6093300280E0089581E00895089507
:1005C0008FEF9FEF08958FEF9FEF089580910902BD
:1005D00090E09195819591090895CF92DF92EF92E5
:1005E000FF920F931F93CF93DF937C01CB018A017E
:1005F00020910802222389F0EB016B01C40ED51E65
:10060000CC15DD0569F06991D701ED91FC91019060
:10061000F081E02DC7010995F3CF642F0E94B80245
:10062000C801DF91CF911F910F91FF90EF90DF9064
:10063000CF900895CF93DF931F92CDB7DEB7698334
:10064000209108022223F9F020910702203258F06D
:1006500021E030E0FC013383228390E080E00F90C2
:10066000DF91CF91089580910602E82FF0E0EA51E2
:10067000FE4F998190838F5F8093060280930702DB
:1006800081E090E0ECCF61E0CE0101960E94B802DB
:10069000F7CFCF92DF92EF92FF920F931F93CF93FA
:1006A000DF93FC01C48121E020930802C093E5019F
:1006B00010920602109207028385682B84E493E06F
:1006C0000E941A03D0910702D13208F092C00E9412
:1006D00021026B017C0180915402811165C082E08E
:1006E0008093540281E0809356028FEF80935302EF
:1006F00010927802D0937702A6EEB1E0E7E5F2E03F
:1007000080E0D81385C01092790280917902CC0FD5
:10071000C82BC093790280915502813009F07CC0CA
:10072000109255020E9421026B017C018091790296
:100730008093BB0080910B0290910C02A0910D025E
:10074000B0910E02892B8A2B8B2B99F00E942102EB
:1007500000910B0210910C0220910D0230910E02BB
:100760006C197D098E099F09061717072807390795
:10077000E0F18091BC0083FDD9CF85EC8093BC0073
:100780000E9421026B017C0180915402823009F4A5
:1007900045C0809153028F3F61F1809153028032B6
:1007A00041F18091530225C080910B0290910C027F
:1007B000A0910D02B0910E02892B8A2B8B2B09F48C
:1007C0008ACF0E94210200910B0210910C0220910D
:1007D0000D0230910E026C197D098E099F090617D2
:1007E00017072807390708F076CF80910A020E9480
:1007F0007902109206021092070210920802DF910D
:10080000CF911F910F91FF90EF90DF90CF900895BF
:100810009D9191938F5F75CF85EEB0CF80910B0244
:1008200090910C02A0910D02B0910E02892B8A2B9F
:100830008B2B09F4A9CF0E94210200910B02109189
:100840000C0220910D0230910E026C197D098E0967
:100850009F09061717072807390708F095CFC5CF56
:10086000089590E080E00895CF93C82F8091E4012F
:100870008C1759F0882319F061E00E94C20160E0F2
:100880008C2F0E94C201C093E401CF9108950F9371
:100890001F93CF93DF9380918D0290918E028536C6
:1008A00091050CF450C084E690E090938E02809302
:1008B0008D02C0918D02D0918E02C436D1050CF00C
:1008C00048C081E08093810280EA90E090938002AA
:1008D00080937F02909387008093860081E18093CC
:1008E000810061E089E00E94F001809180008068D1
:1008F0008093800000917F02109180022FEF33E0FF
:10090000DE010E94721124E630E040E050E00E94D7
:10091000441144275527D8010E9479112AE0969561
:100920008795779567952A95D1F77093890060939D
:10093000880080918102806180938100DF91CF9156
:100940001F910F910895CC970CF0B3CF8CE390E0FA
:10095000ACCFC436D10591F781E08093810280EA63
:1009600090E09093800280937F0290938700809321
:10097000860081E18093810061E089E00E94F001BE
:100980008091800080688093800020917F02309168
:100990008002AEEFB3E00E946311C0CF8091E2010C
:1009A0009091E301813523EC920730F40196909306
:1009B000E3018093E20108951092E3011092E201B5
:1009C0008091E0019091E10101969093E101809383
:1009D000E001089548E050E030E020E08064A3ECBE
:1009E000B0E080937C0090917A00906490937A00BC
:1009F00090917A0096FDFCCF9091780060917900FB
:100A0000762F692F260F371FFD013197F1F74150DF
:100A1000510939F7C90137FD079623E09595879568
:100A20002A95E1F70895FC0101900020E9F731973C
:100A3000AF01481B590BBC0180E593E00C948C007E
:100A40008F929F92AF92BF920F931F93CF93DF939A
:100A5000CDB7DEB7A1970FB6F894DEBF0FBECDBFFE
:100A600019A2423008F44AE08E010F5D1F4F842E18
:100A7000912CB12CA12CA50194010E942211E62FEA
:100A8000B901CA01EA30F4F4E05DD801EE938D01BA
:100A9000232B242B252B79F790E080E0109719F079
:100AA000CD010E941305A1960FB6F894DEBF0FBECC
:100AB000CDBFDF91CF911F910F91BF90AF909F90CD
:100AC0008F900895E95CE1CF0C9413050F931F9369
:100AD000CF938C01C62F0E9449036C2F6460C8011C
:100AE0000E9449036C2F6B7FC8010E94490383EC6D
:100AF00090E00197F1F7CF911F910F9108950F9317
:100B00001F93CF93DF938C01D62FC42F607F642B6C
:100B10000E94660580E1D89FB00111246C2BC801AA
:100B2000DF91CF911F910F910C94660541E00E94D7
:100B30007F0581E090E0089541E0682F80E593E033
:100B40000E947F0581E090E00895CF92DF92EF92BE
:100B5000FF92CF93DF936C01990FEE08FF08F7FE29
:100B600017C08DE20E949C05EC0166277727CB0118
:100B70006C197D098E099F094AE00E9420058C0F9F
:100B80009D1FDF91CF91FF90EF90DF90CF90089560
:100B90004AE0C701B601DF91CF91FF90EF90DF905F
:100BA000CF900C9420054F925F926F927F928F921C
:100BB0009F92AF92BF92CF92DF92EF92FF920F93EC
:100BC0001F93CF936B017C01742EAC019B010E949B
:100BD000F510882399F08CE891E0CF911F910F9147
:100BE000FF90EF90DF90CF90BF90AF909F908F904D
:100BF0007F906F905F904F900C94130546015701C2
:100C0000E894B7F82FEF3FEF4FE75FE7C501B40176
:100C10000E94F51081110DC02FEF3FEF4FE75FE706
:100C2000C501B4010E94240F18161CF480E991E05C
:100C3000D4CF2FEF3FEF4FE75FE4C701B6010E942B
:100C4000831018161CF484E991E0C7CF2FEF3FEF13
:100C50004FE75FECC701B6010E94240F87FDF3CF79
:100C600020E030E0A901C701B6010E94240F10E086
:100C700000E087FF08C08DE20E949C058C01F7FA16
:100C8000F094F7F8F094C0E060E070E080E09FE35B
:100C90007C1641F020E030E040E251E40E94290F50
:100CA000CF5FF6CFA70196010E94B80E2B013C0141
:100CB0000E94A20F4B015C014AE00E9420057C01CA
:100CC000E00EF11ECC23B1F1C501B4010E94D10F99
:100CD0009B01AC01C301B2010E94B70E4B015C0144
:100CE0008EE20E949C05E80EF91EC15018F120E02A
:100CF00030E040E251E4C501B4010E9488102B01AC
:100D00003C010E94A20F4B01B12CA12C4AE0C5016D
:100D1000B4010E942005E80EF91EC501B4010E942D
:100D2000D10F9B01AC01C301B2010E94B70E4B0170
:100D30005C01DBCFC701CF911F910F91FF90EF9026
:100D4000DF90CF90BF90AF909F908F907F906F90EB
:100D50005F904F900895CF93DF93CDB7DEB728977C
:100D60000FB6F894DEBF0FBECDBF98E0EFE4F1E020
:100D7000DE01119601900D929A95E1F7909158033A
:100D8000961710F46FEF690F262F30E0220F331FF4
:100D900041E050E04C0F5D1F240F351FF9016081C9
:100DA000680F606840E080E593E028960FB6F894FD
:100DB000DEBF0FBECDBFDF91CF910C947F050F93A7
:100DC0001F93CF93DF938B01877098E0899FB001C9
:100DD0001124606440E080E593E00E947F05E80113
:100DE000085F1F4F699180E593E00E949605C01748
:100DF000D107C1F7DF91CF911F910F91089585ED34
:100E00008093BC0080910B0290910C02A0910D0286
:100E1000B0910E020796A11DB11D23E0B695A795CE
:100E2000979587952A95D1F72091BC0024FD03C0A2
:100E300010925402089540910B0250910C0260915F
:100E40000D0270910E02452B462B472B69F300973C
:100E5000A105B10541F025E32A95F1F700000197BE
:100E6000A109B109E1CF80910A020C9479021F9285
:100E70000F920FB60F9211242F933F934F935F93CE
:100E80006F937F938F939F93AF93BF93EF93FF9352
:100E900087EA92E00E940A01FF91EF91BF91AF9122
:100EA0009F918F917F916F915F914F913F912F9182
:100EB0000F900FBE0F901F9018951F920F920FB6B4
:100EC0000F9211242F938F939F93EF93FF93E091B1
:100ED000B702F091B8028081E091BD02F091BE02AC
:100EE00082FD1BC090818091C0028F5F8F73209123
:100EF000C102821741F0E091C002F0E0E955FD4FD8
:100F0000958F8093C002FF91EF919F918F912F91C8
:100F10000F900FBE0F901F9018958081F4CF1F92F5
:100F20000F920FB60F9211242F933F938F939F939D
:100F3000AF93BF938091880290918902A0918A0219
:100F4000B0918B0230917A0223E0230F2D3758F5B0
:100F50000196A11DB11D20937A028093880290937F
:100F60008902A0938A02B0938B0280917B029091B8
:100F70007C02A0917D02B0917E020196A11DB11D5F
:100F800080937B0290937C02A0937D02B0937E02BB
:100F9000BF91AF919F918F913F912F910F900FBE75
:100FA0000F901F90189526E8230F0296A11DB11DE2
:100FB000D2CF1F920F920FB60F9211242F933F930F
:100FC0004F935F936F937F938F939F93AF93BF9351
:100FD000EF93FF93E0910001F09101010995FF91DA
:100FE000EF91BF91AF919F918F917F916F915F91A1
:100FF0004F913F912F910F900FBE0F901F9018951A
:101000001F920F920FB60F9211242F933F934F937D
:101010005F936F937F938F939F93AF93BF93EF9360
:10102000FF938091B900887F803609F44AC0F0F5BB
:10103000883209F4A5C018F5803109F499C0B8F4D4
:10104000882309F4F5C0883009F492C0FF91EF912C
:10105000BF91AF919F918F917F916F915F914F91D0
:101060003F912F910F900FBE0F901F9018958831D0
:1010700009F486C0803251F78093530214C0803443
:1010800009F49BC040F48033B9F38833F9F68093B8
:10109000530285ECAEC0803509F483C0883509F46D
:1010A00094C0883499F60E94FF06D0CF883909F49D
:1010B0008AC038F5883729F050F4883611F0803727
:1010C00029F683E0809354021092520255C088386A
:1010D00009F479C0803919F0803809F0B7CF8091D0
:1010E0005202803208F06FC0E091520281E08E0F10
:1010F000809352028091BB00F0E0EE5CFD4F808354
:101100003BC0803B39F0D0F4803A09F477C0883A8C
:1011100009F09CCF84E08093540210923102109227
:101120003002F0E0E0E009958091300281110FC0BB
:1011300081E0809330021092100209C0803C09F4D3
:10114000A8CF883C09F4A5CF883B09F07FCFE09178
:10115000310281E08E0F80933102F0E0E05FFD4FBD
:1011600080818093BB00909131028091300229C030
:10117000809179028093BB0085EC8093BC0066CFA0
:101180009091780280917702981758F5E091780253
:1011900081E08E0F80937802F0E0E95AFD4F808164
:1011A000E9CFE091780281E08E0F80937802809100
:1011B000BB00F0E0E95AFD4F808390917802809166
:1011C00077029817C8F285E8D8CFE091780281E0DD
:1011D0008E0F809378028091BB00F0E0E95AFD4FBA
:1011E00080838091560281115ECF81E08093550209
:1011F00084EA8093BC001092540228CF85EC80933F
:10120000BC001092540280915202803230F4E0917E
:101210005202F0E0EE5CFD4F10826091520270E0ED
:1012200082E392E0F0E0E0E00995109252020ECFE6
:101230001092530238CFE7EAF2E01382128288EE6E
:1012400093E0A0E0B0E084839583A683B78320E693
:1012500031E03183208325EC30E03587248724EC8E
:1012600030E03787268720EC30E0318B208B21EC73
:1012700030E0338B228B22EC30E0358B248B26EC54
:1012800030E0378B268B118E128E138E148EE4E491
:10129000F3E01382128284839583A683B78382E767
:1012A00091E091838083E0E5F3E01382128284E889
:1012B00091E09183808380E2848384E1818784E06C
:1012C000828713860895CF93DF9300D000D0CDB7E7
:1012D000DEB7789484B5826084BD84B5816084BDB6
:1012E00085B5826085BD85B5816085BD80916E00C4
:1012F000816080936E0010928100809181008260F5
:101300008093810080918100816080938100809131
:1013100080008160809380008091B1008460809320
:10132000B1008091B00081608093B00080917A001C
:10133000846080937A0080917A00826080937A0042
:1013400080917A00816080937A0080917A00806831
:1013500080937A001092C10061E088E00E94F00161
:1013600061E088E00E94C2011092900210928F0208
:101370008091550388608093550314E010935803BF
:1013800062E370E080E090E00E94460260915B03BF
:1013900080E593E00E94490368EE73E080E090E00E
:1013A0000E94460260E380E593E00E9466058BE4BC
:1013B00096E40197F1F760E380E593E00E9466050B
:1013C0002BE436E4C9010197F1F760E380E593E08F
:1013D0000E94660583E592E00197F1F760E280E5FF
:1013E00093E00E94660560915503606240E080E5ED
:1013F00093E00E947F051093560340E06CE080E587
:1014000093E00E947F0540E061E080E593E00E9468
:101410007F058BE39FE10197F1F782E0809357030B
:1014200040E066E080E593E00E947F0540E062E0F6
:1014300080E593E00E947F05EBE3FFE13197F1F750
:1014400088E080935B0360E080E593E00E944903BD
:101450000AE111E01982B80189810E94DF06F98151
:10146000FF5FF983085F1F4FF630A9F762E171E073
:1014700087E00E94DF066AE071E086E00E94DF06F6
:1014800062E071E08CE50E94DF0661E08DE00E9481
:10149000F00161E08BE00E94F00161E08CE00E94CD
:1014A000F00180E1809381001092800021E0209380
:1014B000810280EA90E09093800280937F02909373
:1014C00087008093860081E18093810061E089E05C
:1014D0000E94F001809180008068809380001092CB
:1014E0008900109288008091810280618093810040
:1014F0008EEC94E0909301018093000131E03093F1
:101500006F00E091B702F091B80282E08083E09131
:10151000B302F091B4021082E091B502F091B602EC
:101520008FEC80831092BF02E091BB02F091BC026D
:1015300089818083E091B902F091BA028081806153
:101540008083E091B902F091BA0280818860808343
:10155000E091B902F091BA02808180688083E091C5
:10156000B902F091BA0280818F7D80838AE590E094
:1015700090938E0280938D0260E085E00E94F001DE
:1015800061E086E00E94F00160E086E00E94C20116
:1015900060E085E00E94C20160E080E00E94AB064E
:1015A00088E991E00E94640560E084E00E94AB0657
:1015B00066E080E593E00E94960560E088E00E9486
:1015C000AB068CE991E00E94640593E0292E312C52
:1015D00009E010E081E090E00E94EA04BC01990F6C
:1015E000880B990B0E94D30F2BE43BE44BEE5CE39A
:1015F0000E94881026EF38E248E551E40E94B70EB9
:101600006B017C0120E030E0A9010E94240F87FDDE
:1016100064C0C0929902D0929A02E0929B02F0922A
:101620009C0290E080E00E94EA04BC01990F880BC4
:10163000990B0E94D30F24E731ED4DED5CE30E943E
:1016400088104B015C0180929D0290929E02A092B4
:101650009F02B092A00282E090E00E94EA04BC01E6
:10166000990F880B990B0E94D30F24E731ED4DEDB4
:101670005CE30E9488106B017C01C0929102D092C1
:101680009202E0929302F09294022091990230919A
:101690009A0240919B0250919C02C501B4010E94A4
:1016A00088102B013C014092950250929602609264
:1016B00097027092980280918F02909190028130EF
:1016C000910581F008F49AC18230910509F4EDC0CA
:1016D000039709F444C160E00EC1F7FAF094F7F8FB
:1016E000F09497CF20E030E040E85FE3C301B2011F
:1016F0000E94240F87FF18C01092900210928F0250
:1017000010934D0100934C0160E088E00E94C201FB
:1017100020E030E048E351E4C701B6010E948310A5
:101720001816DCF461E01AC020E030E048E551E42E
:10173000C701B6010E94831018160CF074C03092D5
:10174000900220928F0220E030E040E85FE3C30186
:10175000B2010E94240F87FDDBCF60E080918C02F4
:10176000681729F060938C0286E00E94C2012AE982
:1017700039E941E651E4C701B6010E948310181609
:101780000CF093C18CE00E943404E3EBF0E0849110
:10179000EFE9F0E0E490EBE8F0E0F490FF2009F4EA
:1017A00092C181110E949901EF2DF0E0EE0FFF1F11
:1017B000E458FF4FA591B4918C91E82231E020E0EC
:1017C00009F430E0832F922F9093A6028093A50214
:1017D00020914E012817190609F4A1C221E00097B3
:1017E00009F420E020934E01019709F06FC188E0D1
:1017F00080935B0360E080E593E00E9449032FB78C
:10180000F8948091880290918902A0918A02B09107
:101810008B022FBF8093A1029093A202A093A302F8
:10182000B093A4025AC120E030E040EA50E4C30182
:10183000B2010E94240F87FF09C0E4E6F0E0F093B4
:101840008E02E0938D020E9447047DCF20E030E0BD
:1018500040E251E4C701B6010E94881069837A838F
:101860008B839C8320E030E040E251E4C501B40169
:101870000E94290F9B01AC0169817A818B819C8137
:101880000E94290F20E030E040EA50E40E94B80EA8
:101890000E949B0F70938E0260938D0282E090E015
:1018A0009093900280938F024ECF20E030E040E88A
:1018B0005FE3C301B2010E94240F87FD1DCF2AE917
:1018C00039E949E551E4C701B6010E9483101816B1
:1018D0000CF435CF20E030E040EA50E4C301B2011F
:1018E0000E94240F87FF0BC081E090E0909390024C
:1018F00080938F0261E088E00E94C20124CFA3019F
:101900009201609182027091830280918402909191
:1019100085020E94831087FD0BC080914A0190913F
:101920004B0191958195910990934B0180934A01C8
:1019300080918D0290918E0220914A0130914B014D
:10194000820F931F90938E0280938D0240928202A9
:1019500050928302609284027092850274CF20E0DC
:1019600030E040E85FE3C301B2010E94240F87FF2B
:101970000FC01092900210928F0210934D010093AD
:101980004C0160E088E00E94C2010E944704C0CE82
:101990002AE939E949E551E4C701B6010E948310FB
:1019A00018165CF460E088E00E94C20124E630E092
:1019B00030938E0220938D0246CF2AE939E949E51A
:1019C00051E4C701B6010E94240F87FFBCCE84E614
:1019D00090E090938E0280938D020E94470461E014
:1019E00088E00E94C20120E030E048E551E4C701F0
:1019F000B6010E94240F87FFA6CE50CF60E088E09A
:101A00000E94C20180914C0190914D011816190657
:101A100034F4019790934D0180934C0194CE2AE9C0
:101A200039E949E551E4C701B6010E94831018164F
:101A30006CF4A7019601C501B4010E948310181629
:101A40002CF43092900220928F0254CF20E030E0AC
:101A500040E351E4C701B6010E94831018160CF050
:101A600072CE2AE939E949E551E4C701B6010E947D
:101A7000240F87FF68CEA7019601C501B4010E941B
:101A8000831018160CF05FCE82E090E090939002E5
:101A900080938F0261E088E00E94C20168EE73E0EB
:101AA00080E090E00E9446024ECE26E636E64EE307
:101AB00051E4C701B6010E948310181614F48BE09C
:101AC00062CE8DE060CE90E080E07ECE10925B032F
:101AD00060E080E593E00E94490361E080E00E94BD
:101AE000AB0660919D0270919E0280919F02909141
:101AF000A00242E00E94D30580EA91E00E946405C2
:101B000062E080E00E94AB066091990270919A02B7
:101B100080919B0290919C0242E00E94D30583EA4F
:101B200091E00E94640563E080E00E94AB06609152
:101B3000950270919602809197029091980242E0EE
:101B40000E94D30585EA91E00E94640561E088E087
:101B50000E94AB0660919102709192028091930273
:101B60009091940242E00E94D30562E088E00E94D6
:101B7000AB0680918F02909190028130910509F01F
:101B8000D2C088EA91E00E9464052DEC3CEC44E36D
:101B900051E4609191027091920280919302909130
:101BA00094020E94B70E20E030E048EC52E40E941C
:101BB000881020E333E343EB5FE30E94290F0E9488
:101BC0009B0F6536710514F064E670E07B0177FFCA
:101BD00002C0F12CE12C60E08CE00E94AB06C70152
:101BE00064E170E00E940E11862F0E949C0563E064
:101BF00088E00E94AB06C7016AE070E00E940E1107
:101C00009701281B390BC9010E94A50586EC91E0BC
:101C10000E94640560E08FE00E94AB068AEC91E0D0
:101C20000E94640560E083E10E94AB0667E080E506
:101C300093E00E94960561E08FE00E94AB068CEB7A
:101C400091E00E94640561E08FE00E94AB06809104
:101C50008F0290919002892B09F07EC090E080E085
:101C60000E94A5058EEC91E00E94640562E08FE081
:101C70000E94AB0681ED91E00E94640563E08FE075
:101C80000E94AB0680918C02882309F46AC086ED1D
:101C900091E00E94640580918602909187020196EE
:101CA000909387028093860265E070E00E94FA10AC
:101CB000FC01E95AFE4F80810E949C052FB7F894E1
:101CC0008091880290918902A0918A02B0918B0242
:101CD0002FBF4091A1025091A2026091A302709186
:101CE000A402841B950BA60BB70B89399A43A10557
:101CF000B105D0F588E080935B0360E080E593E078
:101D00000E94490380E090E0892B09F463CC0E9493
:101D1000F600882309F45ECC0E9400005BCC2223ED
:101D200009F4DBCE6CCD009719F48EEA91E02BCF4D
:101D30008230910519F484EB91E025CF039709F0E7
:101D400024CF8AEB91E00E94640562E088E00E9463
:101D5000AB0680EC91E017CF80918D0290918E02BE
:101D60007FCF8BED91E095CF10925B03C6CF50589B
:101D7000BB27AA270E94CF0E0C9449100E943B104B
:101D800038F00E94421020F039F49F3F19F426F4F5
:101D90000C9438100EF4E095E7FB0C943210E92F08
:101DA0000E945A1058F3BA17620773078407950701
:101DB00020F079F4A6F50C947C100EF4E0950B2E2F
:101DC000BA2FA02D0B01B90190010C01CA01A0018D
:101DD0001124FF27591B99F0593F50F4503E68F1E8
:101DE0001A16F040A22F232F342F4427585FF3CF29
:101DF000469537952795A795F0405395C9F77EF4FA
:101E00001F16BA0B620B730B840BBAF09150A1F042
:101E1000FF0FBB1F661F771F881FC2F70EC0BA0FC8
:101E2000621F731F841F48F4879577956795B79550
:101E3000F7959E3F08F0B0CF9395880F08F099274B
:101E4000EE0F9795879508950E940E1008F481E093
:101E500008950E943D0F0C9449100E94421058F0C2
:101E60000E943B1040F029F45F3F29F00C9432109F
:101E700051110C947D100C9438100E945A1068F384
:101E80009923B1F3552391F3951B550BBB27AA2733
:101E900062177307840738F09F5F5F4F220F331F6D
:101EA000441FAA1FA9F335D00E2E3AF0E0E832D035
:101EB00091505040E695001CCAF72BD0FE2F29D038
:101EC000660F771F881FBB1F261737074807AB070A
:101ED000B0E809F0BB0B802DBF01FF2793585F4F7F
:101EE0003AF09E3F510578F00C9432100C947D101E
:101EF0005F3FE4F3983ED4F3869577956795B79561
:101F0000F7959F5FC9F7880F911D9695879597F96B
:101F10000895E1E0660F771F881FBB1F62177307E4
:101F20008407BA0720F0621B730B840BBA0BEE1FF9
:101F300088F7E09508950E94A20F6894B1110C945F
:101F40007D1008950E94621088F09F5798F0B92F75
:101F50009927B751B0F0E1F0660F771F881F991FDE
:101F60001AF0BA95C9F714C0B13091F00E947C10F4
:101F7000B1E008950C947C10672F782F8827B85F04
:101F800039F0B93FCCF3869577956795B395D9F736
:101F90003EF490958095709561957F4F8F4F9F4F40
:101FA0000895E89409C097FB3EF49095809570954C
:101FB00061957F4F8F4F9F4F9923A9F0F92F96E995
:101FC000BB279395F695879577956795B795F1110A
:101FD000F8CFFAF4BB0F11F460FF1BC06F5F7F4FA7
:101FE0008F4F9F4F16C0882311F096E911C07723B9
:101FF00021F09EE8872F762F05C0662371F096E8C2
:10200000862F70E060E02AF09A95660F771F881F90
:10201000DAF7880F9695879597F90895990F000834
:10202000550FAA0BE0E8FEEF16161706E807F907AA
:10203000C0F012161306E407F50798F0621B730B45
:10204000840B950B39F40A2661F0232B242B252BC6
:1020500021F408950A2609F4A140A6958FEF811D69
:10206000811D089597F99F6780E870E060E008950A
:102070009FEF80EC089500240A94161617061806A0
:102080000906089500240A9412161306140605067C
:102090000895092E0394000C11F4882352F0BB0F0D
:1020A00040F4BF2B11F460FF04C06F5F7F4F8F4F70
:1020B0009F4F089557FD9058440F551F59F05F3FAB
:1020C00071F04795880F97FB991F61F09F3F79F05A
:1020D00087950895121613061406551FF2CF4695DC
:1020E000F1DF08C0161617061806991FF1CF86955E
:1020F0007105610508940895E894BB276627772742
:10210000CB0197F908950E940E1008F48FEF0895FF
:102110000E949B100C9449100E943B1038F00E94C2
:10212000421020F0952311F00C9432100C943810CA
:1021300011240C947D100E945A1070F3959FC1F3E6
:10214000950F50E0551F629FF001729FBB27F00D65
:10215000B11D639FAA27F00DB11DAA1F649F6627BA
:10216000B00DA11D661F829F2227B00DA11D621F09
:10217000739FB00DA11D621F839FA00D611D221FC3
:10218000749F3327A00D611D231F849F600D211DA7
:10219000822F762F6A2F11249F5750409AF0F1F02A
:1021A00088234AF0EE0FFF1FBB1F661F771F881F93
:1021B00091505040A9F79E3F510580F00C94321089
:1021C0000C947D105F3FE4F3983ED4F386957795A9
:1021D0006795B795F795E7959F5FC1F7FE2B880F39
:1021E000911D9695879597F908950E940E10880B7A
:1021F000990B0895AA1BBB1B51E107C0AA1FBB1F67
:10220000A617B70710F0A61BB70B881F991F5A9582
:10221000A9F780959095BC01CD01089597FB072EF5
:1022200016F4009407D077FD09D00E94FA1007FC3D
:1022300005D03EF4909581959F4F089570956195D6
:102240007F4F0895A1E21A2EAA1BBB1BFD010DC0F2
:10225000AA1FBB1FEE1FFF1FA217B307E407F50756
:1022600020F0A21BB30BE40BF50B661F771F881F32
:10227000991F1A9469F760957095809590959B01C8
:10228000AC01BD01CF010895052E97FB1EF400940B
:102290000E945B1157FD07D00E94221107FC03D05A
:1022A0004EF40C945B1150954095309521953F4F1D
:1022B0004F4F5F4F089590958095709561957F4F32
:1022C0008F4F9F4F0895A29FB001B39FC001A39F5E
:1022D000700D811D1124911DB29F700D811D11245F
:1022E000911D08950E946311B7FF0895821B930BFF
:1022F00008950E946311A59F900DB49F900DA49F17
:10230000800D911D11240895EE0FFF1F0590F4918B
:08231000E02D0994F894FFCFC1
:10231800780210100808040402001F151F151F1565
:102328001F001D151515151517000E1B111111117C
:102338001F000E1B1111111F1F000E1B11111F1F53
:102348001F000E1B1F1F1F1F1F000E1F1F1F1F1FF9
:102358001F000E1F1F1F1F1F1F0001000900010083
:10236800004000140054002A2A2A202000000000FF
:102378002C018C00B9007901EA00C800DC000000DB
:1023880000001A03ED023104DF02E602E302E00274
:102398000000000096058C00310430046E616E0068
:1023A800696E66006F766600534F4C0042415400D8
:1023B80056200041005720006F6E202020006F66D5
:1023C8006620200062756C6B2000202020202000F1
:1023D800666C6F6174002520200050574D00252041
:1023E800004C6F6164004F6E2020004F666620002D
:00000001FF
